:020000040000FA
:100000000C945D000C9485000C9485000C94850084
:100010000C9485000C9485000C9485000C9485004C
:100020000C9485000C9485000C9485000C9485003C
:100030000C9485000C9485000C9485000C9485002C
:100040000C94E0020C9485000C9485000C948500BF
:100050000C9485000C9485000C9485000C9485000C
:100060000C942A030C948500000000080002010093
:100070000003040700000000000000000000000072
:10008000250028002B0000000000240027002A0083
:10009000040404040404040402020202020203032E
:1000A0000303030301020408102040800102040836
:1000B0001020010204081020490411241FBECFEFB4
:1000C000D8E0DEBFCDBF11E0A0E0B1E0E8E9F2E1A9
:1000D00002C005900D92AE36B107D9F722E0AEE628
:1000E000B1E001C01D92A037B207E1F710E0CDE505
:1000F000D0E004C02197FE010E944409CC35D1070D
:10010000C9F70E9481040C944A090C9400000895D8
:10011000089590E0FC01EC55FF4F249180579F4FCC
:10012000FC018491882399F090E0880F991FFC01CD
:10013000EA57FF4FA591B491FC01E458FF4F859118
:1001400094918FB7F894EC91E22BEC938FBF0895C4
:100150008091370290913802891B990B089590E0A5
:10016000FC01E859FF4F2491FC01EC55FF4F3491FD
:10017000FC01E057FF4FE491EE23C9F0222339F050
:10018000233001F1A8F4213019F1223029F1F0E0F7
:10019000EE0FFF1FE458FF4FA591B4918FB7F8946D
:1001A000EC91611126C030953E233C938FBF08959A
:1001B0002730A9F02830C9F0243049F78091800019
:1001C0008F7D03C0809180008F7780938000DFCF88
:1001D00084B58F7784BDDBCF84B58F7DFBCF8091D5
:1001E000B0008F778093B000D2CF8091B0008F7D28
:1001F000F9CF3E2BDACFCF93DF93C82FD0E0809199
:100200005D02D81758F4ED2FF0E0EB5BFD4F6091E5
:10021000480287850E94AF00DF5FF1CFEC2FF0E04E
:10022000EB5BFD4F609146028781DF91CF910C948B
:10023000AF00CF93DF93C82FD0E080915C02D81736
:1002400058F4ED2FF0E0EB5BFD4F609146028781A3
:100250000E94AF00DF5FF1CFEC2FF0E0EB5BFD4FD2
:10026000609148028785DF91CF910C94AF001F9376
:10027000CF93DF93C82FD0E0CB5BDD4F6091450279
:100280008F810E94AF0010E06A9680915D0218177E
:10029000A8F4E12FF0E0888190E0012E02C095954E
:1002A00087950A94E2F780FF07C0EB5BFD4F6091F2
:1002B000470287850E94AF001F5FE7CFDF91CF9194
:1002C0001F9108950F931F93CF93C82FE82FF0E04D
:1002D000EB5BFD4F6091470287850E94AF0001E014
:1002E00010E002C0000F111FCA95E2F7C0E0809134
:1002F0005C02C81788F4EC2FF0E0EB5BFD4F828DB9
:1003000090E080239123892B29F060914502878119
:100310000E94AF00CF5FEBCFCF911F910F91089557
:100320008230910538F0880F991F880F991F059723
:100330000197F1F708953FB7F8948091B301909138
:10034000B401A091B501B091B60126B5A89B05C036
:100350002F3F19F00196A11DB11D3FBFBA2FA92F44
:10036000982F8827BC01CD01620F711D811D911D41
:1003700042E0660F771F881F991F4A95D1F70895AD
:1003800020918F01260F3327331F21323105ECF4E2
:1003900020910302FC0190E080E0243069F082E0CB
:1003A0000895A0918F012191AC0141595E4FA40F96
:1003B000B52FB11D2C930196861798F380918F016C
:1003C000680F60938F0180E0089581E00895109296
:1003D000030281E0809302021092FD0161E082E15C
:1003E0000E94AF0061E083E10E94AF00E9EBF0E022
:1003F00080818E7F808380818D7F808388E480935D
:10040000B80085E48093BC000895CF93DF9391E01A
:1004100090936E018823B9F0C091B800D091BA00D2
:100420008091BC008A7B8093BC0060E082E10E94E6
:10043000AF0060E083E10E94AF000E94E701D0932B
:10044000BA00C093B800DF91CF9108950895E0916C
:10045000380280913702E81730F4F0E0E75FFD4F93
:10046000808190E008958FEF9FEF0895909138027A
:10047000809137022FEF3FEF981748F4E92FF0E013
:10048000E75FFD4F208130E09F5F90933802C90104
:100490000895CF92DF92EF92FF920F931F93CF9325
:1004A000DF937C01CB018A012091BB01222389F0DB
:1004B000EB016B01C40ED51ECC15DD0569F0699109
:1004C000D701ED91FC910190F081E02DC7010995D4
:1004D000F3CF642F0E94C001C801DF91CF911F911B
:1004E0000F91FF90EF90DF90CF900895CF93DF931F
:1004F0001F92CDB7DEB769832091BB012223F9F0AB
:1005000020913502203258F021E030E0FC013383A5
:10051000228390E080E00F90DF91CF910895809149
:100520003602E82FF0E0E454FE4F998190838F5F0C
:10053000809336028093350281E090E0ECCF61E059
:10054000CE0101960E94C001F7CF90E080E00895AF
:1005500085ED8093BC008091050290910602A091E8
:100560000702B09108020796A11DB11D23E0B695C0
:10057000A795979587952A95D1F72091BC0024FDE2
:1005800003C01092030208954091050250910602A3
:100590006091070270910802452B462B472B69F3A7
:1005A0000097A105B10541F025E32A95F1F7000078
:1005B0000197A109B109E1CF809104020C940502D1
:1005C0001F920F920FB60F9211242F933F938F9388
:1005D0009F93AF93BF938091B7019091B801A09181
:1005E000B901B091BA013091B20123E0230F2D3748
:1005F00058F50196A11DB11D2093B2018093B7015A
:100600009093B801A093B901B093BA018091B3015E
:100610009091B401A091B501B091B6010196A11DD0
:10062000B11D8093B3019093B401A093B501B09331
:10063000B601BF91AF919F918F913F912F910F90F4
:100640000FBE0F901F90189526E8230F0296A11D4C
:10065000B11DD2CF1F920F920FB60F9211242F937C
:100660003F934F935F936F937F938F939F93AF933A
:10067000BF93EF93FF938091B900887F803609F490
:100680004AC0F0F5883209F4A7C018F5803109F4A2
:100690009BC0B8F4882309F4F9C0883009F494C0E9
:1006A000FF91EF91BF91AF919F918F917F916F914A
:1006B0005F914F913F912F910F900FBE0F901F9020
:1006C0001895883109F488C0803251F7809301026F
:1006D00014C0803409F49DC040F48033B9F38833EA
:1006E000F9F68093010285ECB0C0803509F485C02D
:1006F000883509F496C0883499F60E94A802D0CFB4
:10070000883909F48CC038F5883729F050F48836D8
:1007100011F0803729F683E0809303021092B10133
:1007200057C0883809F47BC0803919F0803809F047
:10073000B7CF8091B101803208F071C0E091B10172
:1007400081E08E0F8093B1018091BB00F0E0EF5605
:10075000FE4F80833DC0803B39F0E0F4803A09F4DD
:1007600079C0883A09F09CCF84E08093030210920C
:10077000900110928F01E0913302F09134020995BB
:1007800080918F0181110FC081E080938F011092C1
:100790006F0109C0803C09F4A6CF883C09F4A3CFBF
:1007A000883B09F07DCFE091900181E08E0F80932E
:1007B0009001F0E0E159FE4F80818093BB00909161
:1007C000900180918F0129C08091FE018093BB0030
:1007D00085EC8093BC0064CF909100028091FF0172
:1007E000981758F5E091000281E08E0F8093000287
:1007F000F0E0E352FE4F8081E9CFE091000281E01A
:100800008E0F809300028091BB00F0E0E352FE4F18
:100810008083909100028091FF019817C8F285E8CB
:10082000D8CFE091000281E08E0F8093000280918A
:10083000BB00F0E0E352FE4F808380910202811101
:100840005CCF81E08093FD0184EA8093BC0010922C
:10085000030226CF85EC8093BC00109203028091A6
:10086000B101803230F4E091B101F0E0EF56FE4F7B
:1008700010826091B10170E0E0913102F09132029A
:1008800081E991E009951092B1010ACF109201021D
:1008900034CFE9E3F2E01382128288EE93E0A0E025
:1008A000B0E084839583A683B78380E691E091834B
:1008B0008083109238021092370210923602109202
:1008C00035020E94E70187E890E09093340280931C
:1008D000330288E890E09093320280933102E5E49D
:1008E000F2E080ED97E097A386A311A610A612A6CA
:1008F000178A118E12A213A214A215A214821582B5
:100900000895CF93DF93CDB7DEB765970FB6F89410
:10091000DEBF0FBECDBF789484B5826084BD84B540
:10092000816084BD85B5826085BD85B5816085BDEA
:1009300080916E00816080936E00109281008091A2
:10094000810082608093810080918100816080932A
:100950008100809180008160809380008091B1004F
:1009600084608093B1008091B00081608093B0007A
:1009700080917A00846080937A0080917A0082600E
:1009800080937A0080917A00816080937A008091D0
:100990007A00806880937A001092C1008DE00E94F6
:1009A00089008091000190910101A0910201B09114
:1009B000030189879A87AB87BC8788E0E4E0F1E090
:1009C000DE01119601900D928A95E1F7109249028D
:1009D00010924A0210924B0284E080935C0288E0FD
:1009E00080935D0281E0809345021092470210924D
:1009F000460280934802FE013196A4E5B2E0CE01A2
:100A0000099621912D938E179F07D9F78985809399
:100A10004C028A8580934D028B8580934E028C8593
:100A200080934F0210E080915C02181790F4812FA0
:100A300090E09C012B5B3D4F7901F90187810E9479
:100A4000890060914602F70187810E94AF001F5F15
:100A5000EACF10E080915D02181750F090915C028F
:100A6000EFE5F2E080E09817A9F011928F5FFBCFDD
:100A7000812F90E09C012B5B3D4F7901F901878527
:100A80000E94890060914802F70187850E94AF00AB
:100A90001F5FE0CF80E00E94190180E00E94FB0010
:100AA00080ED97E090936C0280936B0210926E023F
:100AB00010926D0210926F02992493942FB7F894BC
:100AC0008091B7019091B801A091B901B091BA019C
:100AD0002FBF40912D0250912E0260912F027091F4
:100AE00030028C019D01041B150B260B370BB9013D
:100AF000A801443F514061057105C8F080932D0263
:100B000090932E02A0932F02B093300261E0809167
:100B10002B0290912C02892B09F060E0862F90E047
:100B200090932C0280932B028DE00E94AF00909254
:100B3000BB0128E62093DC011092360210923502A8
:100B400060E089E392E00E94760210913502113252
:100B500008F033C10E949B016B017C01809103026C
:100B6000811169C032E030930302909202024FEF8C
:100B700040930102109200021093FF01ECEBF1E0B0
:100B8000ADEDB1E01813F1C01092FE018091FE01AD
:100B9000806D8093FE018091FD01813009F0E9C0F4
:100BA0001092FD010E949B016B017C018091FE016E
:100BB0008093BB008091050290910602A0910702EC
:100BC000B0910802892B8A2B8B2BA1F00E949B01EC
:100BD000009105021091060220910702309108024F
:100BE0006C197D098E099F09061717072807390711
:100BF00008F442C08091BC0083FDD8CF85EC80937F
:100C0000BC000E949B016B017C0180910302823039
:100C100009F4B1C08091010210E08F3F91F1809101
:100C2000010212E0803269F18091010213E0803309
:100C300041F114E026C08091050290910602A09136
:100C40000702B0910802892B8A2B8B2B09F486CFDF
:100C50000E949B014090050250900602609007029E
:100C6000709008026C197D098E099F094616570677
:100C70006806790608F072CF809104020E9405028E
:100C800015E010923602109235021092BB0111113C
:100C9000FBC00E949B016B017C01809103028111CA
:100CA0008EC090920302909202025FEF5093010275
:100CB0001092000286E08093FF019092FE018091E5
:100CC000FE01806D8093FE018091FD01813009F06D
:100CD0002FC11092FD010E949B016B017C0180914C
:100CE000FE018093BB008091050290910602A091C5
:100CF0000702B0910802892B8A2B8B2BA1F00E944E
:100D00009B0140900502509006026090070270908F
:100D100008026C197D098E099F0946165706680658
:100D2000790608F46DC08091BC0083FDD8CF85ECB6
:100D30008093BC000E949B016B017C0180910302A7
:100D4000813009F4F7C080910002873008F014C1A7
:100D500080910002ADEDB1E0E9E0F2E0181709F48E
:100D600053C09D9191931F5FF9CF91919D938F5F98
:100D700009CF85EE44CF8091050290910602A091A3
:100D80000702B0910802892B8A2B8B2B09F43DCFE7
:100D90000E949B010091050210910602209107021A
:100DA000309108026C197D098E099F0906171707F3
:100DB0002807390708F029CF5FCF11E062CF809173
:100DC000050290910602A0910702B0910802892BBA
:100DD0008A2B8B2B09F461CF0E949B014090050266
:100DE0005090060260900702709008026C197D090D
:100DF0008E099F09461657066806790608F04DCFFA
:100E0000809104020E94050210923802109337026A
:100E10001730D0F189E392E00E943602F82E89E380
:100E200092E00E943602982F92959F700AE08F7090
:100E3000909F800D11248D8B89E392E00E943602F1
:100E4000982F929593708F70182F909F100D1124EA
:100E500089E392E00E94360289E392E00E94360222
:100E600089E392E00E94360289E392E00E94360212
:100E7000F7FC0AC0812F90E01D3008F47FC00C976A
:100E800090932A02809329028091290290912A024C
:100E900024E6289F6001299FD00C11240D89C00EE3
:100EA000D11CF12CE12C0DB71EB71A8B098B809049
:100EB0005C02282D30E08901015011091C8B0B8B3D
:100EC0004DB75EB7421B530B0FB6F8945EBF0FBE13
:100ED0004DBF0DB71EB70F5F1F4F3901660C771C52
:100EE000660C771CF301EC5CFE4F80819181A2813E
:100EF000B381C816D906EA06FB060CF449C0802F58
:100F0000F8019E2F981B981508F48DC0302F8FE59F
:100F100092E0D8012A2F231B281508F09FC0ED91DD
:100F2000F0E0E45FFE4F2081FC012193CF01F2CF7E
:100F300085EEFECE8091050290910602A0910702F7
:100F4000B0910802892B8A2B8B2B09F4F7CE0E94D3
:100F50009B0140900502509006026090070270903D
:100F600008026C197D098E099F0946165706680606
:100F7000790608F0E3CE44CF87E0ECCE009709F085
:100F80007FCF6CE070E070932A02609329027CCFDF
:100F9000D301A05DBE4F8D919D910D90BC91A02D70
:100FA00041E050E060E070E0481B590B6A0B7B0B9E
:100FB000DB01CA01C816D906EA06FB060CF49FCF6E
:100FC0005F011E870D874CEF4203B001439F700DF8
:100FD0001124788B6F8784E391E08A159B0531F1AA
:100FE00094E0A91AB108EF85F889EA0DFB1DE60D1A
:100FF000F71D2080318042805380C701B601A201D5
:1010000091010E94E908ED85FE852193FE87ED8719
:10101000A22FB0E0A20191010E940809C61AD70AC6
:10102000E80AF90AD8CF75E271936BCF80914B0231
:1010300081116CCFE82FF0E02B893C89E217F30790
:101040000CF064CFE00FF11F9081911104C034E2E5
:1010500030838F5FEFCF9A30E0F758CF09891A8934
:101060000FB6F8941EBF0FBE0DBF80914A028111CA
:1010700076C00E949B0140916F020091670210911F
:1010800068022091690230916A026B017C01C01AEA
:10109000D10AE20AF30A00916D0210916E02411129
:1010A00004C000916B0210916C02012E000C220B07
:1010B000330BC016D106E206F30660F160936702B7
:1010C000709368028093690290936A0280915E0235
:1010D00020914902211126C0442391F010926F0201
:1010E00080915E028F5F80935E0290915D0289170E
:1010F00010F010925E0280915E020E9462010AC0AE
:101100000E94190180916D0290916E02892B41F32A
:1011100090926F0220E030E0232B09F4CFCC0E94A4
:101120000000CCCC442391F010926F0280915E02BB
:101130008F5F80935E0290915C02891710F010928D
:101140005E0280915E020E943701E4CF0E94FB00A4
:1011500080916D0290916E02892B41F3D9CF8091DD
:10116000490210E081111AC080915D02181790F6B3
:10117000812F0E94620180916B0290916C020E940B
:101180009001812F0E94190180916D0290916E0251
:10119000009711F00E9490011F5FE6CF80915C02E2
:1011A000181708F0B7CF812F0E94370180916B028A
:1011B00090916C020E949001812F0E94FB0080910F
:1011C0006D0290916E02009711F00E9490011F5FD6
:1011D000E5CF052E97FB1EF400940E94000957FDF1
:1011E00007D00E94130907FC03D04EF40C940009A9
:1011F00050954095309521953F4F4F4F5F4F089543
:1012000090958095709561957F4F8F4F9F4F089572
:101210000E943509A59F900DB49F900DA49F800D4D
:10122000911D11240895A1E21A2EAA1BBB1BFD01DA
:101230000DC0AA1FBB1FEE1FFF1FA217B307E407B5
:10124000F50720F0A21BB30BE40BF50B661F771F0D
:10125000881F991F1A9469F76095709580959095ED
:101260009B01AC01BD01CF010895A29FB001B39FC6
:10127000C001A39F700D811D1124911DB29F700D9F
:10128000811D1124911D0895EE0FFF1F0590F4910B
:10129000E02D0994F894FFCF02030405060708091E
:1012A0000A0B0C0E3F065B4F666D7D077F6F777CE8
:1012B000395E79713D76060E763800543F7367507B
:1012C0006D783E3E00766E5B00408063010000005A
:1012D0000A00000064000000E8030000102700007E
:1012E000A086010040420F008096980000E1F505BD
:1012F00000CA9A3B0000000076024902A5022602BD
:06130000A80036022702DE
:107E0000112484B714BE81FFF0D085E080938100F7
:107E100082E08093C00088E18093C10086E0809377
:107E2000C20080E18093C4008EE0C9D0259A86E02C
:107E300020E33CEF91E0309385002093840096BBD3
:107E4000B09BFECF1D9AA8958150A9F7CC24DD24C4
:107E500088248394B5E0AB2EA1E19A2EF3E0BF2EE7
:107E6000A2D0813461F49FD0082FAFD0023811F036
:107E7000013811F484E001C083E08DD089C08234E0
:107E800011F484E103C0853419F485E0A6D080C0E4
:107E9000853579F488D0E82EFF2485D0082F10E0AE
:107EA000102F00270E291F29000F111F8ED06801E7
:107EB0006FC0863521F484E090D080E0DECF843638
:107EC00009F040C070D06FD0082F6DD080E0C81688
:107ED00080E7D80618F4F601B7BEE895C0E0D1E017
:107EE00062D089930C17E1F7F0E0CF16F0E7DF06D8
:107EF00018F0F601B7BEE89568D007B600FCFDCFD4
:107F0000A601A0E0B1E02C9130E011968C91119780
:107F100090E0982F8827822B932B1296FA010C0160
:107F200087BEE89511244E5F5F4FF1E0A038BF0790
:107F300051F7F601A7BEE89507B600FCFDCF97BE46
:107F4000E89526C08437B1F42ED02DD0F82E2BD052
:107F50003CD0F601EF2C8F010F5F1F4F84911BD097
:107F6000EA94F801C1F70894C11CD11CFA94CF0C13
:107F7000D11C0EC0853739F428D08EE10CD085E9AC
:107F80000AD08FE07ACF813511F488E018D01DD067
:107F900080E101D065CF982F8091C00085FFFCCF94
:107FA0009093C60008958091C00087FFFCCF809118
:107FB000C00084FD01C0A8958091C6000895E0E648
:107FC000F0E098E1908380830895EDDF803219F02E
:107FD00088E0F5DFFFCF84E1DECF1F93182FE3DFCA
:107FE0001150E9F7F2DF1F91089580E0E8DFEE27F6
:047FF000FF270994CA
:027FFE00040479
:00000001FF
